:020000041A00E0
:10000000008000108503001A7901001A7B01001A94
:100010007D01001A7F01001A8101001A0A75FF5341
:10002000000000000000000000000000411F001A56
:100030008501001A000000000120001A6520001A46
:100040006122001ABB01001ABB01001A0000000067
:10005000BB01001ABB01001ABB01001ABB01001A48
:100060000531001ABB01001ABB01001ABB01001ABE
:10007000BB01001ABB01001ABB01001ABB01001A28
:10008000BB01001ABB01001ABB01001ABB01001A18
:10009000BB01001ABB01001ABB01001ABB01001A08
:1000A000BB01001ABB01001ABB01001ABB01001AF8
:1000B000BB01001ABB01001ABB01001ABB01001AE8
:1000C000BB01001ABB01001ABB01001ABB01001AD8
:1000D000BB01001ABB01001ABB01001ABB01001AC8
:1000E000BB01001ABB01001ABB01001ABB01001AB8
:1000F00000000000BB01001ABB01001ABB01001A7E
:1001000000000000BB01001ABB01001ABB01001A6D
:10011000BB01001A6050001A00000010A40000008B
:100120006050001A00000810000000006050001A23
:1001300000000020000000006050001A0080002035
:10014000000000006050001A00C000200000000005
:10015000A4000010702B0000000008100000000038
:1001600000000020000000000080002000000000CF
:1001700000C0002000000000FEE7FEE7FEE7FEE70B
:10018000FEE7FEE7FEE7FEE7FEE7002393420AD222
:1001900010B404680C600433043004319342F8D383
:1001A0005DF8044B70477047002303E000220260B3
:1001B000043304308B42F9D37047FEE7FFFFFFFFA3
:1001C000FFFFFFFFFFFFFFFFFFFFFFFFFFFFFFFF3F
:1001D000FFFFFFFFFFFFFFFFFFFFFFFFFFFFFFFF2F
:1001E000FFFFFFFFFFFFFFFFFFFFFFFFFFFFFFFF1F
:1001F000FFFFFFFFFFFFFFFFFFFFFFFFFFFFFFFF0F
:10020000FFFFFFFFFFFFFFFFFFFFFFFFFFFFFFFFFE
:10021000FFFFFFFFFFFFFFFFFFFFFFFFFFFFFFFFEE
:10022000FFFFFFFFFFFFFFFFFFFFFFFFFFFFFFFFDE
:10023000FFFFFFFFFFFFFFFFFFFFFFFFFFFFFFFFCE
:10024000FFFFFFFFFFFFFFFFFFFFFFFFFFFFFFFFBE
:10025000FFFFFFFFFFFFFFFFFFFFFFFFFFFFFFFFAE
:10026000FFFFFFFFFFFFFFFFFFFFFFFFFFFFFFFF9E
:10027000FFFFFFFFFFFFFFFFFFFFFFFFFFFFFFFF8E
:10028000FFFFFFFFFFFFFFFFFFFFFFFFFFFFFFFF7E
:10029000FFFFFFFFFFFFFFFFFFFFFFFFFFFFFFFF6E
:1002A000FFFFFFFFFFFFFFFFFFFFFFFFFFFFFFFF5E
:1002B000FFFFFFFFFFFFFFFFFFFFFFFFFFFFFFFF4E
:1002C000FFFFFFFFFFFFFFFFFFFFFFFFFFFFFFFF3E
:1002D000FFFFFFFFFFFFFFFFFFFFFFFFFFFFFFFF2E
:1002E000FFFFFFFFFFFFFFFFFFFFFFFFFFFFFFFF1E
:1002F000FFFFFFFFFFFFFFFFFFFFFFFFFFFFFFFF0E
:1003000000B583B0084801F0BBFF084B01930223FE
:10031000009300234FF47A720549064800F0B9FFB4
:10032000322001F0D5F9EDE7244C001AA4000010AA
:10033000444C001A3903001A08B5054801F0A0FF23
:10034000032002F0BBF8034B186800F0D5FF08BD8E
:100350004C4C001AA400001000B583B00023019398
:10036000012200924FF47A720349044800F091FF91
:1003700001F032F8FEE700BF1C4C001A0103001A1E
:100380007047FFFF10B572B6194A1A4B1A601A4A25
:1003900004331A60002305E04FF0FF31174A42F89A
:1003A00023100133072BF7D962B6154B07E003F191
:1003B0000C049A6859681868FFF7E7FE2346114A4B
:1003C0009342F4D306E01C46596854F8080BFFF733
:1003D000EBFE23460C4A9342F5D302F025FE03F0D0
:1003E00067FAFFF7CDFFFFF7B7FF30BFFDE700BFAC
:1003F0000010DF1000310540FFF7DF0180E200E070
:100400001401001A5001001A7801001A7047704751
:10041000092303604FF0FF307047582303604FF00B
:10042000FF307047022901D801207047092303607B
:100430004FF0FF307047582303604FF0FF30704794
:10044000022920D82DE9F0411D4617460646002412
:10045000AC4212D202F05BF8B0F1FF3FF8D004F1E9
:10046000010838550D2803D00A2801D04446EFE78B
:1004700002F04DF84046BDE8F081132333604FF0A1
:10048000FF30BDE8F081132303604FF0FF30704769
:1004900002290CD870B51D461646002403E0305DD5
:1004A00002F030F80134AC42F9D3284670BD132372
:1004B00003604FF0FF307047054B1B6823B1044BBE
:1004C0001868014419607047024A014B1A60F6E748
:1004D000A8000010142C0010124A12F0070F1ED0B2
:1004E000D11D21F00701C1F5005313440A460E48FF
:1004F0000260002141601344083B23F007030B48CE
:10050000036059601960991A51601360084B1960B3
:10051000084B19604FF00042074B1A6070474FF4C8
:100520000053E4E7B0000010BC200010AC00001045
:10053000B8200010B4200010B020001010B4134BED
:100540001A6882421BD359685C18A04203D14068E4
:1005500001445960184641684418A24213D10C4C1A
:100560002468A2420DD05268114441601A68126892
:100570000260984200D018605DF8044B7047134643
:10058000DEE70460F5E70260F3E700BFBC2000107F
:10059000AC00001070B5044600F07EFF3C4B1B68B9
:1005A000BBB13C4B1B681C4264D1ACB1083414F0A5
:1005B000070F11D024F00704083404F007035BB1DF
:1005C0004FF0A00383F31188BFF36F8FBFF34F8FFA
:1005D000FEE7FFF781FFE4E7002C4DD02E4B1B68B0
:1005E0009C424BD82D4B1D6801E02B4615466A688E
:1005F000944202D92A68002AF7D1254A1268954206
:100600003ED01E6808362A681A606B681B1B102BC8
:1006100010D9281910F0070F08D04FF0A00383F36A
:100620001188BFF36F8FBFF34F8FFEE743606C609D
:10063000FFF784FF6A6818490B689B1A0B6018491A
:1006400009688B4201D216490B60124B1B68134399
:100650006B6000232B6000F0BDFF9EB116F0070F0A
:1006600013D04FF0A00383F31188BFF36F8FBFF354
:100670004F8FFEE70026EEE70026ECE70026EAE7CC
:100680000026E8E700F01EFCE8E7304670BD00BF3A
:10069000AC000010B0200010B4200010BC200010EE
:1006A000B820001080B338B50446A0F1080550F812
:1006B000042C164909680A4208D14FF0A00383F3BD
:1006C0001188BFF36F8FBFF34F8FFEE750F8080C10
:1006D00040B14FF0A00383F31188BFF36F8FBFF3D6
:1006E0004F8FFEE722EA010244F8042C00F0D4FE0A
:1006F00054F8041C064A13680B4413602846FFF79D
:100700001DFF00F067FF38BD704700BFB02000102C
:10071000B420001010B5044601F036FCA26BE36B68
:100720009A4204D0002401F051FC204610BD01245F
:10073000F9E710B5044601F027FCA36B23B10024B0
:1007400001F044FC204610BD0124F9E770B50446D1
:100750001646856B026C4AB9036853BB406801F0CA
:1007600021F9002363600135A56370BD6EB980680F
:1007700003F0C6F8226CA3681344A3606268934236
:1007800019D32368A3600020EDE7C06803F0B8F830
:10079000236C5B42E2681A44E26021688A4202D21A
:1007A00062681344E360022E07D145B1013D002089
:1007B000D9E70020D7E70020D5E70020D3E70020C5
:1007C000D1E7026C72B110B50346C4681444C4602A
:1007D0004068844201D31868D8600846D96803F09D
:1007E0008FF810BD704738B5054601F0CDFB95F880
:1007F000454064B201E0013C64B2002C0ADD6B6A42
:1008000043B105F1240001F025F80028F3D001F0F0
:10081000B3F8F0E7FF2385F8453001F0D7FB01F08E
:10082000B3FB95F8444064B201E0013C64B2002C93
:100830000ADD2B6943B105F1100001F00BF8002827
:10084000F3D001F099F8F0E7FF2385F8443001F088
:10085000BDFB38BD38B530B304460D4601F094FBFE
:100860002168E26B236C03FB021060600020A06330
:10087000A160013A02FB0313E360FF2384F84430D4
:1008800084F84530C5B92369F3B104F1100000F0D4
:10089000E1FFC8B14FF080520D4B1A60BFF34F8F8C
:1008A000BFF36F8F10E04FF0A00383F31188BFF305
:1008B0006F8FBFF34F8FFEE704F1100000F08BFA4B
:1008C00004F1240000F087FA01F080FB012038BD1C
:1008D00004ED00E038B51D46049C0B4649B122608A
:1008E000E063236401212046FFF7B4FF84F84C50F5
:1008F00038BD2460F4E740B94FF0A00383F31188BA
:10090000BFF36F8FBFF34F8FFEE710B584B004467F
:1009100063B1A2B1A9B10120A8B94FF0A00383F33C
:100920001188BFF36F8FBFF34F8FFEE74FF0A00327
:1009300083F31188BFF36F8FBFF34F8FFEE7012062
:10094000EAE70020E8E70AB901B1002040B94FF01A
:10095000A00383F31188BFF36F8FBFF34F8FFEE7C0
:10096000502003900398502808D04FF0A00383F341
:100970001188BFF36F8FBFF34F8FFEE720461C46F1
:10098000012384F8463000949DF81830FFF7A2FF49
:10099000204604B010BDFFFFF0B585B0019260B1F4
:1009A000044699B10125BDB94FF0A00383F3118826
:1009B000BFF36F8FBFF34F8FFEE74FF0A00383F3BA
:1009C0001188BFF36F8FBFF34F8FFEE7026C0AB938
:1009D0000125E8E70025E6E7022B09D06DB94FF0C5
:1009E000A00383F31188BFF36F8FBFF34F8FFEE730
:1009F000E26B012AF2D00025F0E71E460F4600F018
:100A0000C1FF10B9019B03B1002545B94FF0A00308
:100A100083F31188BFF36F8FBFF34F8FFEE700257D
:100A20002CE0324639462046FFF790FE636A8BB1D0
:100A300004F1240000F00EFF38B14FF08052374B24
:100A40001A60BFF34F8FBFF36F8F01F0BFFA012021
:100A500005B0F0BD0028F8D04FF080522F4B1A603F
:100A6000BFF34F8FBFF36F8FEFE701F0AFFA0020B6
:100A7000EEE72046FFF7B7FE00F0ACFD01F084FA88
:100A8000A26BE36B9A42CCD3022ECAD0019B002BFF
:100A9000EBD01DB902A800F023FF012501F096FA62
:100AA00000F0FAFC01F070FA94F844305BB2B3F154
:100AB000FF3F02D1002384F8443094F845305BB204
:100AC000B3F1FF3F02D1002384F8453001F07EFAF4
:100AD00001A902A800F010FFC8B92046FFF71AFECE
:100AE0000028C6D0019904F1100000F07FFE2046D6
:100AF000FFF779FE00F06EFD0028BFD14FF0805265
:100B0000064B1A60BFF34F8FBFF36F8FB6E72046D7
:100B1000FFF769FE00F05EFD002099E704ED00E0BC
:100B20002DE9F84360B1044699B10120B8B94FF0FE
:100B3000A00383F31188BFF36F8FBFF34F8FFEE7DE
:100B40004FF0A00383F31188BFF36F8FBFF34F8F74
:100B5000FEE7006C08B90120E8E70020E6E7022B79
:100B600009D068B94FF0A00383F31188BFF36F8FEA
:100B7000BFF34F8FFEE7E56B012DF2D00020F0E7C9
:100B80001F469046894601F027FBEFF311864FF090
:100B9000A00383F31188BFF36F8FBFF34F8FA26B56
:100BA000E36B9A4201D3022F21D194F845506DB2E4
:100BB0003A4649462046FFF7C9FDB5F1FF3F10D13F
:100BC000636AB3B104F1240000F044FE98B1B8F1B7
:100BD000000F12D00120C8F8000086F31188BDE88C
:100BE000F8836B1C5BB284F845300120F5E70020E8
:100BF000F3E70120F1E70120EFE70120EDE7FFFF38
:100C0000F0B585B0019260B1044699B10125BDB936
:100C10004FF0A00383F31188BFF36F8FBFF34F8FA3
:100C2000FEE74FF0A00383F31188BFF36F8FBFF38C
:100C30004F8FFEE7036C0BB90125E8E70025E6E7D7
:100C40000E4600F09FFE10B9019B03B1002545B987
:100C50004FF0A00383F31188BFF36F8FBFF34F8F63
:100C6000FEE700272FE031462046FFF7AAFD013DB1
:100C7000A563236963B104F1100000F0EBFD38B106
:100C80004FF08052344B1A60BFF34F8FBFF36F8F1A
:100C900001F09CF9012005B0F0BD01F097F90020AA
:100CA000F9E702A800F01CFE012716E0002384F8F3
:100CB00044301EE0002384F8453020E02046FFF752
:100CC00092FD00F087FC01F05FF9A56B002DCAD101
:100CD000019B002BE1D0002FE3D001F077F900F069
:100CE000DBFB01F051F994F844305BB2B3F1FF3F04
:100CF000DCD094F845305BB2B3F1FF3FDAD001F0BD
:100D000065F901A902A800F0F7FDC8B92046FFF770
:100D100010FD0028D2D0019904F1240000F066FDF6
:100D20002046FFF760FD00F055FC0028CBD14FF0C6
:100D30008052094B1A60BFF34F8FBFF36F8FC2E72A
:100D40002046FFF750FD00F045FC2046FFF7F1FC80
:100D50000028B8D000209EE704ED00E00023072B18
:100D60000CD8074A52F833200AB10133F7E7044A96
:100D700042F8331002EBC30358607047704700BF5E
:100D8000CC2B001070B504460D46164601F0FCF859
:100D900094F844305BB2B3F1FF3F0DD094F8453086
:100DA0005BB2B3F1FF3F0BD001F010F9A36B5BB165
:100DB0002046FFF718FD70BD002384F84430EDE7AE
:100DC000002384F84530EFE73246294604F1240039
:100DD00000F024FDECE700F1080343604FF0FF3220
:100DE0008260C360036100230360704700230361D6
:100DF000704743684B609A688A609A68516099604E
:100E00000861036801330360704730B40D68B5F1C1
:100E1000FF3F02D000F1080202E0026904E01A4636
:100E200053681C68A542FAD253684B6099608A6087
:100E30005160086103680133036030BC7047036987
:100E40004268816891608268416851605A68904246
:100E500006D0002202611A68013A1A6018687047C9
:100E600082685A60F5E7FFFF034B0360034B0B609A
:100E700064231360704700BF94280010C420001042
:100E8000034B0360034B0B604FF4C8731360704750
:100E9000F42800105422001010B582B00C460190C6
:100EA0000023009301F070F801992246044803F0F2
:100EB00031FA009B002BFCD001F088F802B010BD85
:100EC000F04C001A08B5044803F0AEFA03492C2090
:100ED000FFF7E2FF08BD00BF7C4C001AA04C001ACF
:100EE00008B5044803F016FA03495020FFF7D4FF71
:100EF00008BD00BFC04C001AA04C001A0A4B1B686A
:100F00001B684BB901234BB9074B1B68DB68DB68D7
:100F10005A68064B1A6070470023F4E74FF0FF321F
:100F2000024B1A60704700BF582900102C2A00108D
:100F30002DE9F04781460D4617469A46089EDDF892
:100F400024800A9C9200A521206B02F073FD236B84
:100F500007F18042013A03EB820727F00707676435
:100F600000230F2B07D8E95CE21882F83410EA5C02
:100F70000AB10133F5E7002384F84330062E00D987
:100F80000626E662266500256565201DFFF72EFF13
:100F900004F11800FFF72AFF2461C6F10706A661D5
:100FA0006462A56584F85C5052464946384600F0B4
:100FB000B1FF2060B8F1000F01D0C8F80040BDE8D3
:100FC000F087FFFF38B5002407E004EB84029300AC
:100FD0000E481844FFF7FFFE0134062CF5D90C4DDE
:100FE0002846FFF7F8FE0B4C2046FFF7F4FE0A48B0
:100FF000FFF7F1FE0948FFF7EEFE0948FFF7EBFEA9
:10100000084B1D60084B1C6038BD00BF60290010F4
:10101000042A0010182A0010342A0010602A001038
:101020004C2A0010582900105C29001010B5044605
:1010300000F0AAFF214A136801331360204B1B689C
:10104000002B32D01F4B1B683BB91D4B1B68DA6A63
:10105000E36A9A4201D81A4B1C601B4A1368013399
:101060001360A364E36A01229A40184908680243A6
:101070000A6003EB83039A00211D15481044FFF713
:10108000B8FE00F0A3FF0F4B1B686BB10C4B1B6845
:10109000DA6AE36A9A4207D24FF080520D4B1A6027
:1010A000BFF34F8FBFF36F8F10BD054B1C601368EC
:1010B000012BD2D1FFF786FFCFE700BFEC2900104C
:1010C00054290010482A0010FC290010002A0010A2
:1010D0006029001004ED00E010B5044690F85D3082
:1010E00063B1012B11D0022B12D04FF0A00383F378
:1010F0001188BFF36F8FBFF34F8FFEE7006BFFF7D1
:10110000D1FA2046FFF7CEFA10BDFFF7CBFA10BD9B
:1011100010BDFFFF0F4B1B68D3B110B500F034FFBB
:101120000D4BDB68DC68201DFFF789FE0B4A136856
:10113000013B1360074A1368013B136000F046FF50
:101140002046FFF7C9FF034B1B68002BE6D110BDFB
:10115000704700BFF0290010602A0010EC29001031
:1011600008B5FFF7D7FF064B1B68012BF9D94FF0E5
:101170008052044B1A60BFF34F8FBFF36F8FF0E7BD
:101180006029001004ED00E070B504460E461D4BCA
:101190001D681D4B18680430FFF751FE50B91A4BFB
:1011A0001B68DA6A012303FA02F218490B6823EA82
:1011B00002030B60B4F1FF3F13D02C44124B1B68A9
:1011C0005C60A54216D8124B18680F4B19680431A1
:1011D000FFF71BFE0F4B1B689C4201D20D4B1C609E
:1011E00070BD002EE9D0084B196804310A48FFF79A
:1011F00000FE70BD094B1868034B19680431FFF7F6
:1012000004FE70BD742A001054290010002A00103A
:10121000582900102C2A00104C2A00105C290010BC
:1012200070B586B00B9D0C9C75B1B4B16026049668
:10123000049E602E1AD04FF0A00383F31188BFF3F1
:101240006F8FBFF34F8FFEE74FF0A00383F311883A
:10125000BFF36F8FBFF34F8FFEE74FF0A00383F311
:101260001188BFF36F8FBFF34F8FFEE72563022511
:1012700084F85D5000250395029405AD01950A9D03
:101280000095FFF755FE2046FFF7D0FE059806B003
:1012900070BD2DE9F04385B006460F4615469846C9
:1012A0009000FFF777F910B381466020FFF772F9DD
:1012B0000446C0B1C0F83090DCB1002384F85D3042
:1012C000039302940D9B01930C9B009343462A4683
:1012D00039463046FFF72CFE2046FFF7A7FE0120D7
:1012E00005B0BDE8F0834846FFF7DCF9E4E70024E9
:1012F000E2E74FF0FF30F3E738B5044600F044FE74
:10130000002C34D0251D2846FFF799FD70B9E26AFC
:1013100002EB82018B002649CB583BB9012303FA2B
:1013200002F224490B6823EA02030B60A36A1BB193
:1013300004F11800FFF783FD1F4A1368013313609F
:101340001E4B1B689C4215D01D4A1368013B13605D
:101350002046FFF7C1FEFFF7D1FD00F037FE194B25
:101360001B681BB1154B1B689C420CD038BD134B3E
:101370001C68C7E729461448FFF73BFD134A13686A
:1013800001331360E9E7124B1B6843B14FF0A00330
:1013900083F31188BFF36F8FBFF34F8FFEE74FF0DA
:1013A00080520C4B1A60BFF34F8FBFF36F8FDDE796
:1013B00060290010002A0010FC2900105429001098
:1013C000EC290010482A0010602A0010F0290010B3
:1013D000F829001004ED00E010B588B00024059451
:1013E000069407AA06A905A8FFF73EFD059B0293F0
:1013F000069B019300942346079A19491948FFF761
:101400000FFF48B10120012808D0012809D0B0F110
:10141000FF3F1BD008B010BD0020F4E700F088FBB0
:10142000F3E74FF0A00383F31188BFF36F8FBFF38F
:101430004F8F4FF0FF320C4B1A6001220B4B1A609A
:1014400000220B4B1A6000F03FFEE3E74FF0A003D1
:1014500083F31188BFF36F8FBFF34F8FFEE700BF99
:10146000304D001A6111001A2C2A0010482A001071
:10147000742A001008B54FF0A00383F31188BFF35E
:101480006F8FBFF34F8F0022024B1A6000F06AFD8E
:1014900008BD00BF482A0010024A136801331360D8
:1014A000704700BFF8290010014B1868704700BF53
:1014B000742A0010F8B53C4B1B68002B68D13B4BDD
:1014C0001D6801351D60C5B9394B1B681B6843B1E8
:1014D0004FF0A00383F31188BFF36F8FBFF34F8FDB
:1014E000FEE7334A1168334B186810601960324ABE
:1014F000136801331360FFF701FD304B1B689D42F9
:101500003AD200242E4B1B68DB6A03EB83039A005C
:101510002C4B9B58012B40D901243EE00124244B45
:101520001B681B6853B3002353BB214B1B68DB684C
:10153000DE6873689D4228D3371D3846FFF77FFC6D
:10154000B36A1BB106F11800FFF779FCF36A0122B8
:101550009A401D49086802430A6003EB83039A001E
:10156000394618481044FFF744FCF26A144B1B68D4
:10157000DB6A9A42D2D2D2E70024D0E70123D3E734
:101580004FF0FF320D4B1A60BCE70C4A1360B9E70D
:101590000E4A13680133136000240D4B1B6803B11E
:1015A00001242046F8BD00BFF8290010742A00105D
:1015B000582900105C290010302A00102C2A001035
:1015C0005429001060290010002A0010F42900108E
:1015D000782A001038B5354B1B6843B94FF0A0038B
:1015E00083F31188BFF36F8FBFF34F8FFEE700F0D7
:1015F000CBFC2E4B1A68013A1A601B68002B50D1A5
:101600002B4B1B6823B9002400F0E0FC204638BDBA
:101610000024284B1B681BB3264BDB68DC6804F1F5
:101620001800FFF70CFC251D2846FFF708FCE36AAD
:1016300001229A402049086802430A6003EB8303B1
:101640009A0029461D481044FFF7D3FBE26A1C4B61
:101650001B68DB6A9A42DCD301221A4B1A60D8E776
:101660000CB1FFF74BFC184B1C6874B9154B1B6889
:10167000CBB14FF08052154B1A60BFF34F8FBFF3C1
:101680006F8F0124C0E7013C07D0FFF713FF00284C
:10169000F9D001220B4B1A60F5E700220A4B1A60C1
:1016A000E4E70024B0E70024AEE700BFF82900100B
:1016B000EC290010342A0010002A001060290010C4
:1016C00054290010782A0010F429001004ED00E0DD
:1016D00010B5A8B10446104B1B6843B14FF0A003EE
:1016E00083F31188BFF36F8FBFF34F8FFEE7FFF7D0
:1016F000D3FE00212046FFF747FDFFF76BFF00E018
:10170000002038B94FF08052044B1A60BFF34F8F5E
:10171000BFF36F8F10BD00BFF829001004ED00E08B
:101720002D4B1B6853BB10B500222C4B1A602C4B61
:101730001B681B6B1A68B2F1A53F03D15A68B2F15E
:10174000A53F1FD0264B186819683431FFF7C8FB36
:10175000244B1B68B3FA83F3DBB2C3F11F0303EB23
:1017600083018A0020498A58AAB94FF0A00383F365
:101770001188BFF36F8FBFF34F8FFEE70122174B26
:101780001A6070479A68B2F1A53FDBD1DB68B3F10C
:10179000A53FD7D1DCE714489A00D418A100014432
:1017A0004C6864684C601A449100083108448442D3
:1017B00009D003EB83039A000B4B13445B68DA6890
:1017C000074B1A6010BD606803EB83029100064A64
:1017D0000A445060EDE700BFF8290010782A001095
:1017E00054290010002A00106029001040B94FF061
:1017F000A00383F31188BFF36F8FBFF34F8FFEE712
:1018000010B50C46044B19681831FFF7FEFA012198
:101810002046FFF7B9FC10BD5429001038B570B14F
:101820000C4615460A4A11681831FFF7E2FA0DB165
:101830004FF0FF3429462046FFF7A6FC38BD4FF095
:10184000A00383F31188BFF36F8FBFF34F8FFEE7C1
:101850005429001038B5C368DC6824B304F11805B6
:101860002846FFF7ECFA184B1B682BBB251D2846B2
:10187000FFF7E5FAE36A01229A4014490868024337
:101880000A6003EB83039A00294611481044FFF7CE
:10189000B0FAE26A0F4B1B68DB6A9A4211D9012049
:1018A0000D4B186038BD4FF0A00383F31188BFF3D0
:1018B0006F8FBFF34F8FFEE729460848FFF799FA6D
:1018C000E7E7002038BD00BFF8290010002A00100B
:1018D0006029001054290010782A0010342A0010C2
:1018E000034B1B680360034B1B684360704700BFDA
:1018F000302A0010742A0010F8B5E0B1054619B37B
:101900000C4600F041FB1A4B18686968421A2368BC
:10191000B3F1FF3F28D02F68164E3668B74201D08A
:10192000884223D29A4218D300232360012400F076
:101930004DFB2046F8BD4FF0A00383F31188BFF3A1
:101940006F8FBFF34F8FFEE74FF0A00383F3118833
:10195000BFF36F8FBFF34F8FFEE79B1A23602846BC
:10196000FFF7BEFF0024E2E70024E0E70124DEE702
:10197000742A0010302A00100122014B1A607047AF
:10198000782A0010054B1B6823B1054B1B681BB957
:10199000022070470120704700207047482A00103D
:1019A000F829001000284AD038B50446274A1268A2
:1019B000904208D04FF0A00383F31188BFF36F8FDC
:1019C000BFF34F8FFEE7426D42B94FF0A00383F3A0
:1019D0001188BFF36F8FBFF34F8FFEE7013A426567
:1019E000C06A216D88422CD06ABB251D2846FFF7AE
:1019F00026FA70B9E26A02EB82018B001449CB58D7
:101A00003BB9012303FA02F212490B6823EA0203ED
:101A10000B60236DE362C3F10702A261012404FAA3
:101A200003F20C49086802430A6003EB83039A003F
:101A3000294607481044FFF7DCF9204638BD00204E
:101A40007047002038BD002038BD00BF5429001069
:101A500060290010002A0010064B1A681368B3FAB8
:101A600083F35B09036013B9D368186870470020DB
:101A7000704700BF7C2A001008B5416000619142A8
:101A80000CD8D21A83699A4201D3012008BD011DE6
:101A9000094B1868FFF7B9F9002008BD9A4201D236
:101AA000994206D2011D054B1868FFF7AEF90020D8
:101AB00008BD012008BD00BF802A00107C2A00104C
:101AC00030B583B000F060FA114B1B681BB100F019
:101AD0007DFA03B030BD0F4D2846FFF77CF90E4C60
:101AE0002046FFF778F90D4B1D600D4B1C6000235D
:101AF00000930C4B0C4A10210A20FEF7FCFE044B0D
:101B000018600028E3D00949FFF728F9DFE700BF94
:101B1000A02B0010242B0010382B00107C2A001062
:101B2000802A0010502B0010842A0010384D001A13
:101B300010B588B0FFF7C4FF154B1B681BB300241A
:101B40000594069407AA06A905A8FFF799F9059B2D
:101B50000293069B0193042300932346079A0D49A1
:101B60000D48FFF75DFB0D4B186050B1012060B9C7
:101B70004FF0A00383F31188BFF36F8FBFF34F8F34
:101B8000FEE72046F3E70020F1E708B010BD00BFF4
:101B9000A02B0010404D001A811E001AA42B00102B
:101BA000C0B130B585B015460446174A106840B339
:101BB0001A4600910195029405291CDCFFF7E2FE0C
:101BC000022810D000231A4669460F480068FEF725
:101BD000E3FE14E04FF0A00383F31188BFF36F8F8F
:101BE000BFF34F8FFEE70023089A69460648006856
:101BF000FEF7D2FE03E000236946FEF791FF05B031
:101C000030BD0020FBE700BFA02B001070B582B0F4
:101C10001A4B1B681A6852B3DB681E68DC68251D06
:101C20002846FFF70CF9636A20469847E369012BC1
:101C3000EED1A36933449E4207D2636024612946F2
:101C40000E4B1868FFF7E1F8E2E7002100910B4620
:101C500032462046FFF7A4FF0028D9D14FF0A00359
:101C600083F31188BFF36F8FBFF34F8FFEE7044AF2
:101C7000106802490860136002B070BD7C2A001031
:101C8000802A001038B50546FFF70EFC0446074BC6
:101C90001B68984205D300232B60044B1C60204630
:101CA00038BDFFF7B3FF01232B60F6E74C2B001084
:101CB00070B582B005460E46144B1B68DB68DC68C5
:101CC000201DFFF7BCF8E369012B04D0636A2046AE
:101CD000984702B070BDA1692B4632462944204680
:101CE000FFF7CAFE0028F1D0002100910B462A46DA
:101CF0002046FFF755FF0028E8D14FF0A00383F3FB
:101D00001188BFF36F8FBFF34F8FFEE77C2A00105F
:101D100070B582B006460C46FFF7BEFB01A8FFF780
:101D2000B1FF019B23BB05460CB9B04219D22CB1BF
:101D3000114B1B681C68B4FA84F464092246711BB9
:101D40000E4B1868FFF71EF8FFF744FC38B94FF048
:101D500080520B4B1A60BFF34F8FBFF36F8F02B0EF
:101D600070BDFFF737FC29463046FFF7A1FFF6E7C5
:101D7000FFF730FCF3E700BF802A0010A02B001013
:101D800004ED00E030B589B002E0049B002B0FDACF
:101D9000002204A9394B1868FEF732FF00286AD0E8
:101DA000049B002BF1DA07990698059B9847ECE70E
:101DB000069C636913B1201DFFF741F803A8FFF7E4
:101DC00061FF049B092BE3D801A252F823F000BF66
:101DD000F91D001AF91D001AF91D001A911D001AAB
:101DE000411E001A671E001AF91D001AF91D001A7B
:101DF000911D001A411E001A0599A5690B4602465D
:101E000029442046FFF738FE0028C1D0636A2046E7
:101E10009847E369012BBBD1A269002100910B46D1
:101E2000059802442046FFF7BBFE0028B0D14FF0D2
:101E3000A00383F31188BFF36F8FBFF34F8FFEE7CB
:101E40000599A16131B10346024601442046FFF7DE
:101E500013FE9DE74FF0A00383F31188BFF36F8F4C
:101E6000BFF34F8FFEE794F82C30002B90D1204623
:101E7000FEF718FC8CE709B030BD00BFA02B0010A6
:101E800000B583B001A8FFF7E7FD0199FFF740FF18
:101E9000FFF778FFF6E7FFFF82B0002301930D4BB9
:101EA0001B68B3F1FF3F08D04FF0A00383F3118804
:101EB000BFF36F8FBFF34F8FFEE74FF0A00383F3A5
:101EC0001188BFF36F8FBFF34F8F019B002BFCD0A6
:101ED00002B070470000001008480068006880F3F6
:101EE00008884FF0000080F3148862B661B6BFF333
:101EF0004F8FBFF36F8F00DF00BF000008ED00E0E1
:101F0000DFF80C00016841F47001016070470000C7
:101F100088ED00E04FF0807340F8043C21F00101AF
:101F200040F8081C054B40F80C3C40F8202C6FF0A2
:101F3000020340F8243C4438704700BF991E001A41
:101F4000074B19680868B0E8F04F80F30988BFF3C1
:101F50006F8F4FF0000080F311887047AFF300805F
:101F600054290010074B1B68B3F57A7F08D04FF057
:101F7000A00383F31188BFF36F8FBFF34F8FFEE78A
:101F8000704700BF000000104FF0A00383F31188DA
:101F9000BFF36F8FBFF34F8F0A4A1368013313608B
:101FA000012B0DD1084B1B6813F0FF0F08D04FF029
:101FB000A00383F31188BFF36F8FBFF34F8FFEE74A
:101FC000704700BF0000001004ED00E0094B1B68E3
:101FD00043B94FF0A00383F31188BFF36F8FBFF3B2
:101FE0004F8FFEE7013B034A13600BB983F311885F
:101FF000704700BF00000010FFFFFFFFFFFFFFFF63
:10200000EFF30980BFF36F8F154B1A681EF0100FA6
:1020100008BF20ED108A20E9F04F10602DE909007B
:102020004FF0A00080F31188BFF34F8FBFF36F8F85
:10203000FFF776FB4FF0000080F3118809BC1968A8
:102040000868B0E8F04F1EF0100F08BFB0EC108A1F
:1020500080F30988BFF36F8F704700BFAFF3008034
:102060005429001008B54FF0A00383F31188BFF383
:102070006F8FBFF34F8FFFF71DFA18B14FF08052EB
:10208000024B1A60002383F3118808BD04ED00E0C1
:10209000084A0023136008490B60084B1B68084975
:1020A000A1FB03135B09013B06490B600723136087
:1020B000704700BF10E000E018E000E00C2C0010BA
:1020C0001F85EB5114E000E03A4B1A683A4B9A42F4
:1020D00008D14FF0A00383F31188BFF36F8FBFF3D4
:1020E0004F8FFEE7334B1A68344B9A4208D14FF0BA
:1020F000A00383F31188BFF36F8FBFF34F8FFEE709
:1021000010B582B02E4B1A78D2B20192FF221A700B
:102110001B78DBB28DF803309DF8033003F0A00389
:10212000284A13700722284B1A6009E0264A1368D0
:10213000013B13609DF803305B00DBB28DF8033088
:102140009DF8033013F0800FF0D11F4B1B68042B58
:1021500008D04FF0A00383F31188BFF36F8FBFF354
:102160004F8FFEE71B0203F4E063174A1360019BE5
:10217000DBB2134A1370154B1A6842F460021A60FE
:102180001A6842F060421A60FFF782FF0024104B89
:102190001C60FFF7B5FE0F4A136843F0404313601D
:1021A000FFF79AFEFFF7BCFAFFF776FE204602B073
:1021B00010BD00BF00ED00E071C20F4170C20F41C1
:1021C00000E400E0A82B0010AC2B001020ED00E094
:1021D0000000001034EF00E0EFF305830F2B0FD960
:1021E000104A9B5CDBB2104A1278934208D24FF03F
:1021F000A00383F31188BFF36F8FBFF34F8FFEE708
:102200000A4B1B6803F4E063094A1268934208D939
:102210004FF0A00383F31188BFF36F8FBFF34F8F8D
:10222000FEE77047F0E300E0A82B00100CED00E0A3
:10223000AC2B001010B50024032C0ADC064B1857F9
:1022400000F02CFF08B10134F6E7044B1C600120BC
:1022500010BD002010BD00BF484D001AB02B00106B
:1022600008B50122044BC3F88021044B1B6813B14D
:10227000024B1B68984708BD00E100E0B42B00103A
:1022800010B50446FFF780FE21460C4802F042F8E4
:102290000B4B1B68986801F091F90A4B1B68012BE6
:1022A00004D00024FFF792FE24B910BDFFF7C2FF4F
:1022B0000446F7E7FFF7DEF8F7E700BF4C4D001ADA
:1022C00040000010040000100022052A19D870B444
:1022D0000C4911F8125001EB42014C780A4B05F5FC
:1022E000006653F826100120A040014343F8261051
:1022F00003EB4513002119550132052AE8D970BCBA
:10230000704770475C4D001A00400F400023032BBC
:1023100016D830B40B4911F8132001EB43014D7866
:10232000094C02F5006254F822100120A84021EA6D
:10233000000144F822100133032BEBD930BC704765
:10234000704700BF544D001A00400F400023082B77
:1023500016D830B40B4911F8132001EB43014D7826
:10236000094C02F5006254F822100120A84021EA2D
:10237000000144F822100133082BEBD930BC704720
:10238000704700BF684D001A00400F4010B582B082
:10239000084C6946204600F0F3F9074A6946204692
:1023A00000F00EFA00226946204600F022FA02B040
:1023B00010BD00BF00300E40801A060010B50B4C57
:1023C000204600F015FE636823F004036360236871
:1023D00023F0FF0343F0070323600549204600F084
:1023E000E8FD636843F00203636010BD00500C40D9
:1023F000A086010008B5002000F08EFD40F608021E
:10240000034BC3F8842C0349002000F097FD08BD5E
:102410000060084040420F0010B5074C204600F015
:10242000EDF84FF4E131204600F012F90323E360A8
:102430000123E36510BD00BF00100C40034B5B6936
:1024400013F0200FFAD0014B1860704700100C40B9
:10245000054B5B6913F0010F03D0034B1868C0B242
:1024600070474FF0FF30704700100C4005280BD824
:10247000064A12F8103002EB400042785B0103F18B
:10248000402303F570239954704700BF5C4D001A38
:1024900005280FD8084A12F8103002EB40004278A5
:1024A0005B0103F1402303F57023985C003018BFF3
:1024B00001207047002070475C4D001A10B504469B
:1024C000FFF7E6FF80F00101C9B22046FFF7CEFF1B
:1024D00010BDFFFF08B5FFF79FFF094800F00AFD98
:1024E000FFF734FFFFF752FFFFF768FFFFF782FFA8
:1024F000FFF7EAFEFFF70AFF00F082F908BD00BF10
:1025000000400F4008B5C0B2FFF798FF08BD08B5FE
:10251000FFF79EFF08BD08B5FFF77EFF08BDFFFF70
:1025200000231C2B12D810B4094A02EB830112F8C5
:1025300023404A78488802EB4412064941F82200B9
:1025400001331C2BF0D95DF8044B7047704700BF76
:10255000844D001A0060084010B5174AD2F82031A7
:1025600023F4704343F41043C2F82031D2F82431ED
:1025700023F4704343F41043C2F8243101220F497D
:10258000062000F00DFC00244CB10B4B5A6822F0E1
:102590000C025A605A6842F003025A6010BD0848A3
:1025A00000EB840101238A78497810F8240000F0B8
:1025B00053FB0134E8E700BF0030044000CB280C97
:1025C000804D001A08B5FFF7ABFFFFF7C5FF08BD48
:1025D000094B984209D003F58053984207D0A3F5E0
:1025E0008023984205D000207047022070470320C6
:1025F00070470120704700BF00100C4030B583B019
:102600000446FFF7E5FF01231A4619460E4D35F83B
:10261000100000F067FB0723A3600023E3656360FD
:10262000E3602362E36463652365084B9C4206D044
:102630000323E3601023A362019B03B030BD00239A
:102640002361A3690193F3E7004E001A00200840BC
:102650002DE9F04F83B083468846FFF7B9FF354B2D
:1026600033F8100000F076FB06464FF0FF370124E8
:1026700000230193A24699462AE043424A1C17E0F0
:102680000BB31F460195A24691460135AC421ED9B7
:1026900033093007A4FB000104FB0311621908FB96
:1026A00002F2002300F03CFD03460A460028E4DB6A
:1026B0009F42EAD3002AE8D0110CE6D1022ADFD8E3
:1026C000002DE2D1DCE71F460195A2469146013478
:1026D0001FB10F2C01D80025D8E7B9F1000F24D085
:1026E000DBF80C3043F08003CBF80C305FFA89F351
:1026F000CBF80030C9F30723CBF80430DBF80C30FB
:1027000023F08003CBF80C304FEA0A13DBB20199B7
:1027100001F00F021343CBF82830330903FB0AF30F
:102720008A440AFB09F9B3FBF9F9484603B0BDE84E
:10273000F08F00BFF84D001A034B984201D00320E0
:1027400070470420704700BF00400E4070B50D4632
:1027500014461E46FFF7F0FF00F0FCFA65B904EBE3
:10276000840304EB430404EB40006400B0FBF4F08A
:10277000C0B20138C0B270BD04FB06F4F3E7FFFF3E
:1027800038B505460C46FFF7D7FF01231A46194610
:1027900000F0A8FA0021E960084A22602171617105
:1027A0000B232846FFF7D2FF000240F400102379E4
:1027B0005B0403F460231843286038BD801A0600C8
:1027C00070B505460E46046824F46F2424F4706442
:1027D0000A600B79C3F10B03DBB24979FFF7B6FF4F
:1027E00044EA00203479640404F46024204328601F
:1027F00070BD08B50A710A68FFF7E2FF08BDFFFF68
:1028000008B5692000F0A6FA014B186008BD00BFAA
:102810000C2C0010F0B50B6813F0800F02D023F0E1
:1028200040030B60074601253BE04B6903FB02F3C5
:10283000B3FBF5F314E01C4620E0CEF1000E20E0DF
:102840000132B2F5807F26DC0C6814F0400FECD02A
:10285000731C02FA03FE4B6903FB0EF3B3FBF5F3A3
:10286000DFF848E07345EBD9DFF844E0734512D850
:1028700014F0800FDFD1741C23FA04F4B0EB040EC3
:10288000DBD47745DCD98D60771CCF600A618C6121
:10289000CB617746D4E70136032E01DC0122D0E775
:1028A0000135042D01DC0026F6E7F0BDFF5E4C0982
:1028B00000D01213F0B599B005460C4660220021F5
:1028C000684601F0B7F88023009363690593237984
:1028D0008DF8043069462846FFF79CFF069B9D4211
:1028E00027D0EB1A2ED41E46109B23F040031093E2
:1028F0006369159323798DF8443010A92846FFF7B2
:1029000089FF169B9D421FD0EB1A25D41F462B4BE7
:102910009D4223D90E9BED1A33D4AE423BDCBE421E
:1029200031DC6D460FCD0FC495E80F0084E80F0031
:1029300006E06D460FCD0FC495E80F0084E80F0048
:1029400019B0F0BD5B42CEE710AD0FCD0FC495E8D6
:102950000F0084E80F00F3E75B42D7E740230893BA
:1029600063690D9308A92846FFF754FF0E9B9D420B
:10297000D0D108AD0FCD0FC495E80F0084E80F004B
:10298000DEE76D42C9E710AD0FCD0FC495E80F002B
:1029900084E80F00D4E7AF4207DB08AD0FCD0FC4CA
:1029A00095E80F0084E80F00CAE710AD0FCD0FC403
:1029B00095E80F0084E80F00C2E700BF80778E061D
:1029C00030B4054600231C2000E001331C2818D138
:1029D00003EB430251000C4A0A441479A04210D080
:1029E00003EB43014A0008498A5AAA42EDD803EB97
:1029F00043025100044A0A4452889542E5D82046D1
:102A0000E4E730BC704700BF144E001A82B04FF4A8
:102A10007A7301930D4A936923F0020192699142FE
:102A200001D00A4A916123F00303094A1168094A57
:102A3000914201D943F00403044A9361019B5A1E59
:102A40000192002BFAD102B0704700BF0000054090
:102A50007C4D001AFF2C31011230054B53F8200039
:102A600010F0010F01D011207047C0F304607047CF
:102A70000000054000F11202034B53F82220034BE3
:102A8000185C00EA92007047000005400C4E001AE6
:102A900008B510280AD8DFE800F0440B0D1821090A
:102AA00024272A2D09093034383C4000002008BD75
:102AB0001E4808BD1E4BD3F82C3103F00703042B2E
:102AC00001D01C4808BD002008BD194BD3F82C319B
:102AD00003F00703042B27D0164808BD164B1868CF
:102AE00008BD164B186808BD154B186808BD144B77
:102AF000586808BD00F068F808BD002100F09AF899
:102B000008BD012100F096F808BD022100F092F8FE
:102B100008BD032100F08EF808BD042100F08AF8FA
:102B200008BD4FF4004008BD064808BD001BB700B3
:102B30000030044040787D01504D001A7C4D001A51
:102B4000B82B001080F0FA0238B505460C4608791B
:102B5000FFF79EFF6061194B2B44194A934221D81D
:102B600018B3802323600023A360E360B5FBF0F378
:102B70002361144A954203D903FB00F0854207D034
:102B800021462846FFF796FEA3688BB1013BA36060
:102B9000236983B1E2680AB1013AE260013B236133
:102BA000002038BD4FF0FF3038BD4FF0FF3038BD4A
:102BB0004FF0FF3038BD4FF0FF3038BD103A6BFF9B
:102BC0001005940BFF5E4C0930B583B0174D6C6C4B
:102BD000C4F30360FFF75CFF154B1B6801932B6C7C
:102BE00013F0010F1FD0C4F30742C4F30133C4F341
:102BF0000121C4F38015013201330DF1080E714437
:102C000011F8041C14F0800F08D13DB94900B2FB43
:102C1000F1F2B0FBF3F000FB02F005E0B0FBF3F0E3
:102C200000FB02F000E0002003B030BD00000540D2
:102C3000084E001A38B50C460846FFF70DFF05464A
:102C40002046FFF717FF04462846FFF721FF01340F
:102C5000B0FBF4F038BDFFFF30B400F11604A4005F
:102C600004F1804404F5A02465681B2813D81129B9
:102C70001AD00E4C2C400AB144F400640BB144F05D
:102C8000010444EA01641630800000F1804000F540
:102C9000A020446008E045F001051630800000F1F6
:102CA000804000F5A020456030BC7047FEF7FFE093
:102CB0001B2801D9112070471630800000F1804098
:102CC00000F5A020406810F0010F01D011207047DE
:102CD000C0F30460704708B5FFF7EAFFFFF7D8FEBE
:102CE00008BDFFFF69B901210AB141F00401022BBF
:102CF00009D0B0F5A17F09D22030074B43F830103E
:102D000070470321F0E741F02001F2E7A0F5917050
:102D1000024B43F83010704700100540002005407A
:102D2000B0F5A17F08D2094A203052F8303043F084
:102D3000010342F830307047054AA0F5917052F80F
:102D4000303043F0010342F8303070470010054046
:102D50000020054010B5B0F5A17F09D3A0F591730F
:102D60000D4A52F8334014F0010F07D1002010BD76
:102D700000F12003094A52F83340F4E7FFF720FE40
:102D8000FFF7A9FF14F0E00F03D10123B0FBF3F02C
:102D900010BD0223FAE700BF0020054000100540E7
:102DA00070B58AB005460E4614464CF2503309936E
:102DB000062818D00023012229460420FFF74CFFE3
:102DC000494A536C43F0010353648DF8085001A93C
:102DD0003046FFF7B9FE454B9E4216D9019B13F0D2
:102DE000400F03D0FEE7FFF711FEE3E713F0800F7B
:102DF00005D023F0800301930025012607E0049B02
:102E0000013304930125002601E000252E469DF89C
:102E10000820019B43EA0263059A43EA0243039AAE
:102E200043EA0233049A43EA022343F400632E4A3E
:102E300053642D4B1B6C13F0010FFAD000230122B9
:102E400009210420FFF708FFFEB14CF2503309932B
:102E5000099B5A1E0992002BFAD1019B43F0800373
:102E600001939DF8082043EA0263059A43EA02436E
:102E7000039A43EA0233049A43EA022343F40063C9
:102E8000194A53646CB3002429E0002DFAD04CF2A7
:102E900050330993099B5A1E0992002BFAD1049BC7
:102EA0005A1E04929DF80810019B43EA016305999C
:102EB00043EA0143039943EA013343EA022343F41B
:102EC0000063094A5364DDE7094800EB8401CB78CD
:102ED0008A78497810F82400FFF7BEFE0134112CDF
:102EE000F2D90AB070BD00BF0000054080778E06A1
:102EF000804E001A7047FFFF012900D07047C0EBD9
:102F0000C0008200034B13441A69137DDBB2042B0B
:102F1000FBD0F3E70800001070B50546064EC4006C
:102F2000221A930033449888FFF7FAFE641BA3002B
:102F3000F3586C229A6170BD080000102DE9F04131
:102F40000C460B4EC5002B1A4FEA830806EB08030C
:102F50009888FFF7FFFEB0FBF4F056F808304208FF
:102F60001A6156F808301A69801A5861BDE8F08174
:102F700008000010034B984201D083207047A52021
:102F8000704700BF00500C40044B984202D040F202
:102F9000022070474FF4F170704700BF00500C40A2
:102FA000036823F47F43090289B20B430360026183
:102FB000704770B506460D46FFF7E6FFFFF7CAFEFD
:102FC00002224FF0FF33002100E02146AB420BD933
:102FD0004C1C04FB02F3B0FBF3F39D42F6D2FF2C32
:102FE000F3D902320021F1E73046FFF7D9FF70BD77
:102FF00010B50446FFF7BEFFFFF792FE2046FFF72D
:10300000C3FFFFF78DFE636823F00403636023684A
:1030100023F0FF0343F00703236002492046FFF734
:10302000C8FF10BDA086010008B50D4B0D4A9A607F
:1030300003F50C731B6903F47F63202B0DD0002371
:1030400033B1074AD2F8883043F47003C2F88830AD
:10305000FFF7B8FAFFF73EFA08BD0123F0E700BF1B
:1030600000ED00E00000001A30B40B4D00EB8000D2
:103070002C182856087094F90110117094F9022048
:103080001A7094F90320029B1A7094F90420039B90
:103090001A7030BC704700BFC84E001A10F1020F02
:1030A0002CD0B0F1FF3F2BD000B585B000238DF8B8
:1030B0000F308DF80E308DF80D308DF80C308DF806
:1030C0000B300DF10B03019303AB00930DF10D03D6
:1030D0000DF10E020DF10F01FFF7C6FF9DF90C3047
:1030E0009DF80B205B0103F1402303F57023985CEE
:1030F000003018BF012005B05DF804FB01207047C7
:103100000020704708B5044B1B681B68DB68034A46
:103110001068984708BD00BF102C0010C02B00108D
:1031200053B94AB9002908BF00281CBF4FF0FF312E
:103130004FF0FF3000F07AB9ADF1080C6DE904CE24
:1031400000F006F8DDF804E0DDE9022304B0704782
:103150002DE9F0478C460D460446089E002B51D1C0
:103160008A4217466DD9B2FA82FEBEF1000F0BD02B
:10317000CEF1200C01FA0EF520FA0CFC02FA0EF743
:103180004CEA050C00FA0EF44FEA174A250CBCFB7A
:10319000FAF81FFA87F90AFB18CC45EA0C4508FB38
:1031A00009F3AB420AD9ED1908F1FF3280F023810F
:1031B000AB4240F22081A8F102083D44ED1AA4B2CE
:1031C000B5FBFAF00AFB105544EA054400FB09F987
:1031D000A14509D9E41900F1FF3380F00A81A14526
:1031E00040F2078102383C44A4EB090440EA08405D
:1031F0000021002E61D024FA0EF4002334607360A5
:10320000BDE8F0878B4207D9002E54D0002186E814
:1032100021000846BDE8F087B3FA83F1002940F0A9
:103220008E80AB4202D3824200F2FA80841A65EBB0
:1032300003050120AC46002E3FD086E81010BDE803
:10324000F08712B90127B7FBF2F7B7FA87FEBEF194
:10325000000F34D1EB1B3A0C1FFA87FC0121B3FBA2
:10326000F2F8250C02FB183345EA03450CFB08F382
:10327000AB4207D9ED1908F1FF3002D2AB4200F2A0
:10328000D1808046ED1AA3B2B5FBF2F002FB1055D7
:1032900043EA05440CFB00FCA44507D9E41900F1FE
:1032A000FF3302D2A44500F2B8801846A4EB0C0408
:1032B00040EA08409DE731463046BDE8F087CEF150
:1032C000200405FA0EF307FA0EF720FA04F83A0C78
:1032D00025FA04F448EA0308B4FBF2F14FEA184572
:1032E00002FB11441FFA87FC45EA044501FB0CF37D
:1032F000AB4200FA0EF409D9ED1901F1FF3080F06C
:103300008A80AB4240F2878002393D44EB1A1FFAB3
:1033100088F5B3FBF2F002FB103345EA034500FBEE
:103320000CF3AB4207D9ED1900F1FF386FD2AB4275
:103330006DD902383D44EB1A40EA01418FE7C1F1F3
:10334000200722FA07F88B4005FA01F448EA030344
:1033500020FA07FE4FEA134CFD404EEA040EB5FB7F
:10336000FCF94FEA1E440CFB19551FFA83F844EA96
:10337000054509FB08F4AC4202FA01F200FA01FA31
:1033800008D9ED1809F1FF3043D2AC4241D9A9F177
:1033900002091D442D1B1FFA8EFEB5FBFCF00CFB31
:1033A00010554EEA054400FB08F8A04507D9E4187B
:1033B00000F1FF3529D2A04527D902381C4440EA44
:1033C0000940A4EB0804A0FB02894C45C6464D46C3
:1033D00015D312D056B1BAEB0E0364EB050404FA10
:1033E00007F7CB401F43CC40376074600021BDE835
:1033F000F0871846F8E69046E0E6C245EAD2B8EB18
:10340000020E69EB03050138E4E72846D7E740469A
:1034100091E78146BEE7014678E702383C4445E73C
:10342000084608E7A8F102083D442BE7704700BFB3
:103430008B891A072DE9F0410D46804633D44A683E
:10344000002A67DDEC6A002C45D00022D8F8006025
:10345000C8F8002013F4805260D06A6D5F0705D56C
:1034600069686B6B521A0BB12B6CD21A0023296A54
:103470004046A047441C39D0AB892A692A60DB0446
:103480004FF000026A6043D4696BC8F8006011B362
:1034900005F14403994202D0404600F019FB002098
:1034A0006863BDE8F0810E69AEB10C680E609807E4
:1034B0000CBF4B690023A41B8B600AE023463246F5
:1034C000AF6A296A4046B8470028A4EB00040644C6
:1034D00004DD002CF2DC0020BDE8F081AB8943F074
:1034E0004003AB814FF0FF30BDE8F081D8F80020F9
:1034F0001D2AF3D8174BD340DB4313F00103EDD162
:10350000A9892C696B60C9042C60BDD5002ABBD188
:103510006865B9E70A6C002A94DCDCE70123296AB4
:103520004046A047431C024602D0AB89EC6A95E7AF
:10353000D8F80030002BF8D01D2B01D0162B02D16B
:10354000C8F80060C7E7AB8943F04003AB81BDE832
:10355000F08100BF010040200B6933B310B5044671
:1035600082B008B18369ABB1114B994219D0114BAC
:10357000994218D0104B994208BFE168B1F90C305C
:1035800013B9002002B010BD204602B0BDE81040C3
:10359000FFF74EBF019100F01BF90199044B9942CE
:1035A000E5D16168EAE7A168E8E70020704700BF5D
:1035B000F04F001AD04F001AB04F001A20B1054B3F
:1035C00001461868FFF7C8BF034B0449186800F0AC
:1035D00045B900BF400000101050001A5935001ABC
:1035E00000207047014900F039B900BF5935001A71
:1035F0000020704770B54A1E682505FB02F50E468F
:1036000005F1740100F0ACFA044640B100210C3021
:10361000666005F168022160A06000F00BFA2046A8
:1036200070BD00BF204B70B51D68AB6906465BB32B
:1036300048356B68AC68013B05D521E0013B5A1C5D
:1036400004F168041CD0B4F90C20002AF6D100253E
:103650004FF6FF720123E281A38165662560A560B4
:10366000656025616561A5612946082204F15C0059
:1036700000F0E0F96563A563A564E564204670BDCC
:10368000286828B10546D4E7284600F00FF8CFE7B0
:1036900004213046FFF7AEFF28600028F2D10C234A
:1036A00004463360EAE700BF1050001A3D4B3E4924
:1036B0001A682DE9F04F90424FF000038364C36411
:1036C000036508BF012383B008BF83618162074699
:1036D000FFF7A8FF78603846FFF7A4FFB8603846C8
:1036E000FFF7A0FF7D68F86000240423AB812C6005
:1036F0006C60AC606C66EC812C616C61AC612146E5
:1037000005F15C00082200F095F9BE68DFF89CB076
:10371000DFF89CA0DFF89C90DFF89C80C5F824B00F
:1037200001230922C5F828A0C5F82C90C5F83080DF
:103730002D622146F381B28134607460B460746696
:1037400034617461B46106F15C000822019300F0F9
:1037500071F9FD68366212200222C6F824B0C6F85C
:1037600028A0C6F82C90C6F830802146A881EA81AE
:103770002C606C60AC606C662C616C61AC6105F1B6
:103780005C00082200F056F9019B2D62C5F824B0B8
:10379000C5F828A0C5F82C90C5F83080BB6103B0EF
:1037A000BDE8F08F1050001AE535001A3944001AB0
:1037B0006144001A9D44001ABD44001A024B03499B
:1037C000186800F04BB800BF1050001A5935001AA5
:1037D000836903B96AE77047704700BF704700BF4D
:1037E000704700BF704700BF024B0349186800F0E4
:1037F0000FB800BF40000010F135001A024B03491A
:10380000186800F005B800BF40000010E135001A4C
:103810002DE9F04110F148071BD0884600267D684D
:10382000BC68013D0FD4A389012B05F1FF3506D9F2
:10383000B4F90E300133204601D0C04706436B1C5B
:1038400004F16804EFD13F68002FE8D13046BDE8AD
:10385000F0813E463046BDE8F08100BF2DE9F843D7
:1038600010F148071FD0884606464FF000097D68D2
:10387000BC68013D11D4A389012B05F1FF3508D99E
:10388000B4F90E3001332146304602D0C04749EA30
:1038900000096B1C04F16804EDD13F68002FE6D1EC
:1038A0004846BDE8F883B9464846BDE8F88300BFFE
:1038B00070B50F4E0F4D761BB61018BF002405D003
:1038C000013455F8043B9847A642F9D10A4E0B4DF6
:1038D000761BFCF79CFDB61018BF002406D00134FF
:1038E00055F8043B9847A642F9D170BD70BD00BFA2
:1038F0005450001A5450001A5850001A5450001ACC
:10390000844641EA000313F003036DD1403A41D3EA
:1039100051F8043B40F8043B51F8043B40F8043BA9
:1039200051F8043B40F8043B51F8043B40F8043B99
:1039300051F8043B40F8043B51F8043B40F8043B89
:1039400051F8043B40F8043B51F8043B40F8043B79
:1039500051F8043B40F8043B51F8043B40F8043B69
:1039600051F8043B40F8043B51F8043B40F8043B59
:1039700051F8043B40F8043B51F8043B40F8043B49
:1039800051F8043B40F8043B51F8043B40F8043B39
:10399000403ABDD2303211D351F8043B40F8043BD9
:1039A00051F8043B40F8043B51F8043B40F8043B19
:1039B00051F8043B40F8043B103AEDD20C3205D3E9
:1039C00051F8043B40F8043B043AF9D2043208D0E1
:1039D000D2071CBF11F8013B00F8013B01D30B8853
:1039E00003806046704700BF082A13D38B078DD031
:1039F00010F003038AD0C3F10403D21ADB071CBF03
:103A000011F8013B00F8013B80D331F8023B20F86C
:103A1000023B7BE7043AD9D3013A11F8013B00F8A5
:103A2000013BF9D20B7803704B7843708B7883702D
:103A30006046704770B4860746D0541E002A41D0B5
:103A4000CAB2034602E014F1FF343BD303F8012B62
:103A50009D07F8D1032C2ED9CDB245EA05250F2CB0
:103A600045EA054519D903F110022646103E0F2EEE
:103A700042F8105C42F80C5C42F8085C42F8045CC6
:103A800002F11002F2D8A4F1100222F00F0204F0A9
:103A90000F041032032C13440DD91E462246043A5B
:103AA000032A46F8045BFAD8221F22F003020432EC
:103AB000134404F003042CB1C9B21C4403F8011BE5
:103AC0009C42FBD170BC704714460346C2E700BF5E
:103AD00091B151F8043C0439002BB8BFC9181F4BF1
:103AE0001A68FAB18A4230B40AD908680C18A2429E
:103AF00026D04A60196030BC70478B4203D81A4602
:103B00005368002BF9D1146815198D420DD006D8D1
:103B100008680C189C4219D04B605160EBE70C23ED
:103B20000360E8E74A601960704709680C4411199E
:103B300099421460DFD10ACB0C4453601460DAE779
:103B4000146852684A6020440860D3E71C685B68C8
:103B50004B60204408605160CDE700BFC42B0010CB
:103B600070B5CC1C24F0030408340C2C38BF0C2492
:103B7000002C06463BDBA14239D8274D296851B1BC
:103B80000A68121B04D436E01A68121B1AD51946AB
:103B90004B68002BF8D16968002937D021463046A0
:103BA000FCF78AFC431C22D0C31C23F00305A84267
:103BB00005D0291A3046FCF77FFC013017D02C6065
:103BC0002B4604E00B2A0DD91A6013441C6003F144
:103BD0000B0020F007001A1D821A02D051429950A2
:103BE00070BD70BD8B420ED05A684A60EFE70C235F
:103BF0003360002070BD0B2A03D84A680B462A6048
:103C0000E5E70B46E0E70A460B46F8E73046FCF7E7
:103C100053FC6860C2E700BFC42B00109368013BEF
:103C2000002B10B4936008DBCCB21368581C1060F2
:103C3000197020465DF8044B70479469A34202DB7B
:103C4000CCB20A2CF1D15DF8044B00F03BBC00BFB4
:103C500093B1F8B514460F460646D51801E0AC42BC
:103C600008D03A4614F8011B3046FFF7D7FF431C33
:103C7000F5D1F8BD0020F8BD00207047936810B55D
:103C8000144613B95360184610BD00F0F7FC00232A
:103C9000A360636010BD00BF2DE9F04F9DB0894661
:103CA00014460393824618B18369002B00F00A8101
:103CB0008A4B994500F00C81894B994500F00B81A6
:103CC000884B994508BFDAF80C90B9F80C30180702
:103CD00040F1EE80D9F81030002B00F0E98030235D
:103CE0008DF82A302378804E0021202209918DF80A
:103CF00029200127002B00F08480252B254603D1A5
:103D000017E0252B00F0858015F8013F002BF8D136
:103D1000B5EB040B75D022465B4649465046FFF78B
:103D200097FF01306DD0099B2A785B440993002AE4
:103D300067D000234FF0FF320135049307930693B9
:103D40008DF853301A93059204E0049A07FA03F3AE
:103D50001343049329780522304600F079FE2C465F
:103D6000831B01350028F0D1049BD90644BF2022D3
:103D70008DF8532021781A0744BF2B228DF8532049
:103D80002A2969D0A1F13002092A0BD8079B14F81F
:103D9000011F03EB830302EB4303A1F13002092A65
:103DA000F5D907932E293FD0504D0322284600F025
:103DB0004FFE38B1049B401B402202FA00F003433F
:103DC0000134049321784A488DF8281006220134E2
:103DD00000F03EFE002849D0464BF3B103AB009300
:103DE0004A46454B04A95046AFF300808046B8F1DF
:103DF000FF3F06D0099B434409932378002B7FF4AF
:103E00007CAFB9F80C305B0659D409981DB0BDE8F9
:103E1000F08FB5EB040B8CD07DE7039B073323F0C9
:103E2000070308330393E5E761782A2904F10100C9
:103E300026D0A1F130020023092A05930446B3D805
:103E400014F8011F03EB830302EB4303A1F13002DB
:103E5000092AF5D90593A7E7039A116804320029C6
:103E600003921FDB0791617801349BE703AB00935A
:103E70004A46214B04A9504600F0E6F88046B6E7D2
:103E8000039B1A680592002A03F104030393B8BF49
:103E90004FF0FF3204F10203AEBFA178A178059282
:103EA0001C4681E7494243F0020307910493DAE795
:103EB0004946504600F068FB00283FF410AF4FF031
:103EC000FF30A3E7FFF784FC044B99457FF4F4AE81
:103ED000DAF80490F9E6DAF80890F6E6F04F001AFE
:103EE000D04F001AB04F001A1850001A2050001A74
:103EF0002450001A00000000513C001A10B4044C79
:103F000013460A46014620685DF8044BFFF7C4BE1D
:103F1000400000102DE9F0470C4691460A69896877
:103F2000DDF820808A42B8BF0A46C9F8002094F81C
:103F3000431006461F4611B10132C9F8002023681C
:103F400099065DD5D9F800200232C9F8002023680F
:103F500013F0060F19461DD1E1688A1A002AD8BF4E
:103F6000194617DD04F1190A002505E0E368D9F8C0
:103F700000209B1AAB420CDD0123524639463046E5
:103F8000C047013005F10105F0D14FF0FF30BDE829
:103F9000F087216894F84330003318BF01238A0664
:103FA0000AD5E1185A1C302081F84300224494F8C5
:103FB000451082F84310023304F14302394630467B
:103FC000C0470130E1D0236803F00603042B29D059
:103FD000A36822699342C8BF4FF0000930DD9B1AE5
:103FE00099441A34002501E04D4529D00123224689
:103FF00039463046C047013005F10105F4D1C4E728
:1040000013F0060F08D1E168D9F800208A1A002AB7
:10401000D8BF1946A6DCBDE794F84330003318BF7B
:104020000123C9E7D9F80010E068A3682269A0EB72
:104030000109934229EAE979D1DCB9F1000FD0D125
:104040000020BDE8F08700BF2DE9F0430C46097E53
:1040500085B06E29064617460C98984604F1430C25
:1040600055D00FD8632900F01B8100F2D6800029BB
:104070005CD0582940F0E88084F845102268DFF8C9
:1040800060E213E0732900F0FD8000F289806F295F
:1040900000F0E480702940F0D780226842F02002CE
:1040A00022607823DFF83CE284F845300368150687
:1040B00003F1040100F1FF8055064BBF1B881B680C
:1040C00001600160D00744BF42F020022260002B53
:1040D00040F09580226822F0200222601021002208
:1040E00084F843206068A0600028C0F28D802268B8
:1040F00022F004022260002B67D1002840F0868065
:10410000654608296FD0ACEB0503236111E02368F5
:104110001A0600F1D38013F0400F0368626903F1BF
:10412000040101601B6814BF1A801A6000236546F1
:104130002361CDF800803B4603AA21463046FFF7B5
:10414000E9FE013021D02A46236939463046C0476E
:1041500001301AD02368E06813F0020F039B19D0D6
:10416000C21A002A16DD04F11909002504E0E068EE
:10417000039BC21AAA420DDD01234A463946304646
:10418000C047013005F10105F1D14FF0FF3005B016
:10419000BDE8F0839842B8BF184605B0BDE8F0838B
:1041A00075295BD078294FD122687AE76168A160D0
:1041B0002D200029C3F1000384F8430021DB22F005
:1041C0000402DFF81CE122600A216546B3FBF1F22C
:1041D00001FB123013461EF8002005F8012D002BBC
:1041E000F4D108298FD12368D9078CD56268236957
:1041F0009A4288DC302305F8013C013D83E7102119
:104200006DE7DFF8DCE00A21002BDED19EF80030FC
:1042100084F8423004F1420573E7642901D069292A
:1042200012D122680368150603F1040152D4550621
:104230004BBFB3F900301B6801600160002BB5DB98
:10424000DFF89CE00A214DE7012384F84210236146
:1042500004F14205002384F843306AE723681A0614
:1042600033D413F0400F036803F1040215BF1B8819
:104270001B68026002606F2914BF0A210821DFF861
:1042800060E02CE703686268191D01601D68002169
:10429000284600F0DDFB00B3401B60602061D9E7D9
:1042A00003681A68191D0123016004F1420584F8AE
:1042B00042202361CEE701601B6803E7036862695F
:1042C000191D01601B681A6030E703681A1D02603F
:1042D0001B68D0E701601B68B0E76068DEE700BFDD
:1042E0002C50001A4050001A0EB410B5044683B08A
:1042F00018B183690BB9FFF76BFA06A80346019062
:10430000059AA1682046FFF7C7FC03B0BDE810403E
:1043100003B070470FB410B50A4B1C6882B024B1CB
:10432000A36913B92046FFF753FA05A80346019085
:10433000049AA1682046FFF7AFFC02B0BDE8104028
:1043400004B07047400000102DE9F0410E46804651
:1043500000283ED08369002B39D084682F4B9C42C3
:1043600043D02F4B9C4256D02E4B9C4208BFD8F8CE
:104370000C40A3891B073DD52369002B3AD0013E91
:10438000A36816F8015F013BA360B5B1002B04DB05
:1043900023685A1C22601D70F2E7A769BB422246BF
:1043A0002946404601DB0A2DF2D100F08BF801309E
:1043B000E6D14FF0FF30BDE8F081002B21DB236810
:1043C0000A22591C21601A701046BDE8F081FFF7DF
:1043D000FFF9D8F81830D8F80840002BBED1404675
:1043E000FFF7F6F90D4B9C42BBD1D8F80440A389E6
:1043F0001B07C1D42146404600F0C6F80028BED0B5
:10440000D7E7224640460A2100F05CF80130D0D0C0
:104410000A20BDE8F081D8F80840AAE7F04F001A5A
:10442000D04F001AB04F001A024B01461868FFF730
:104430008BBF00BF4000001010B50C46B1F90E1044
:10444000FBF7FEFF002803DB636D0344636510BDCB
:10445000A38923F48053A38110BD00BF00207047BF
:104460002DE9F0411646B1F90C201F46D3050C4644
:10447000054607D500220223B1F90E10FBF7DBFF3A
:10448000B4F90C20B4F90E1022F48052A2813B46FC
:1044900032462846BDE8F041FBF7FABF10B50C469E
:1044A000B1F90E10FBF7C7FFA389421C0EBF23F41E
:1044B000805343F480536065A38110BDB1F90E10A1
:1044C000FBF7A6BFF8B50D461446064610B1836942
:1044D000002B42D0254B9C4244D0254B9C4243D0DC
:1044E000244B9C4208BFF468A389A269A2601A0702
:1044F00022D5236903B322686169D31AEDB28B42D6
:104500002F4621DA0133A168501C0139A1602060D7
:10451000157062699A4206D0A389DB0701D50A2D7E
:1045200001D03846F8BD21463046FFF715F800287F
:10453000F7D04FF0FF37F4E72146304600F024F87B
:104540000028F6D12369D6E721463046FFF704F864
:104550000028EED122680123D5E7FFF739F9034B94
:104560009C42BAD17468BFE7B468BDE7F04F001A47
:10457000D04F001AB04F001A024B0A460146186885
:10458000FFF7A0BF40000010384B70B51D6806460D
:104590000C4615B1AB69002B42D0354B9C4245D03F
:1045A000344B9C4258D0344B9C4208BFEC68B4F961
:1045B0000C2093B219070CD52069A8B113F00102A1
:1045C0001ED0636900225B42A361A260F0B10020AB
:1045D00070BDDD0642D558072AD4206942F0080391
:1045E000A3819BB20028E9D103F42072B2F5007FC9
:1045F000E4D03046214600F0E7F9A3892069DDE7E1
:10460000990758BF6269A2600028E0D1B4F90C3064
:104610001A06DDD543F04003A3814FF0FF3070BD93
:104620002846FFF7D5F8124B9C42B9D16C68BEE71B
:10463000616B51B104F14403994204D03046FFF755
:1046400047FAB4F90C2000236363002320696360F8
:1046500022F024022060C1E7AC68A8E742F04002E3
:10466000092333604FF0FF30A28170BD400000107D
:10467000F04F001AD04F001AB04F001A9368002B69
:1046800073D02DE9F04F8B8983B00C461907009049
:10469000164626D5226922B313F0020035682CD0C5
:1046A0004FF00009B04FC846B246B84543464A46A7
:1046B00028BF3B460098B8F1000F50D0216AA66A87
:1046C000B047002858DDDAF808301B1A8144A8EBFF
:1046D0000008CAF80830002BE7D1002003B0BDE87D
:1046E000F08F21460098FFF74FFF002840F03381FC
:1046F000A389356813F00200D2D113F0010945D126
:104700004F46019637B39A05D4F8088040F183806C
:104710004745C346C0F0AB8013F4906F40F0AC80C7
:104720002068BA465A46494600F0E2F9A268236872
:10473000A2EB08025B44A2602360019A9368A3EB9A
:104740000A03D144A7EB0A079360002BC5D0A389C5
:10475000002FD8D1D5F800906F680835D2E7D5F88A
:104760000090D5F8048008359FE700207047214667
:104770000098FEF7F1FE70B3B4F90C3043F040033B
:104780004FF0FF30A38103B0BDE8F08F8146334680
:104790004E46A8469A464D464EB380B320682369DC
:1047A0006269B145CB4628BFB34698425F4604D9FB
:1047B000A36813449B4500F3A68093454BDB134647
:1047C000A76A216A00982A46B847071ED4DDB9EBCC
:1047D0000709CCD00120DAF80830DB1B3D44F61B7A
:1047E000CAF80830002B3FF478AF002ED5D108F17D
:1047F000080313E9600098460833002EF9D03246CA
:104800000A21284600F024F9002800F0A180013098
:10481000A0EB0509C2E720682369984202D86369C2
:104820009F425DD2B84528BFB8464246494600F08F
:104830005FF9A3682268A3EB08034244A3602260E7
:104840000BB1C24679E721460098FEF785FE0028A5
:1048500092D1C24671E75A46294600F049F9A2684A
:104860002368A2EB0B025B44A2602360AFE72068E1
:10487000B846BA46BB4655E762692068216902EB33
:104880004208A0EB010A08EBD8780AF101004FEAD0
:10489000680838444045424684BF804642465B052E
:1048A00044D511460098FFF75BF98346002855D0A0
:1048B00052462169FFF724F8A38923F4906343F05B
:1048C0008003A3810BEB0A00A8EB0A03C4F810B025
:1048D000C4F814802060A360B846BA46BB4621E7FE
:1048E0006FF00041B94228BF39464A4691FBF3F1C7
:1048F0000098A66A03FB01F3216AB047B0F1000AF1
:104900003FF71BAF38E71A462946019300F0F0F84D
:104910002268019B00981A4422602146FEF71CFE83
:10492000019B00287FF428AF1F4650E7009800F055
:1049300043F983460028C5D1009D21692846FFF729
:10494000C7F8B4F90C300C2223F080032A6015E775
:1049500006F1010922E74FF0FF30BFE6009A0C2371
:104960001360B4F90C3009E700FCFF7F70B50C460A
:10497000B1F90E10002990B015461E4613DB01AAAE
:10498000FBF74BFD00280EDB029A02F47042A2F501
:104990000052B2FA82F252094FF480630020326072
:1049A0002B6010B070BDA38900221B06326004D5B5
:1049B000402300202B6010B070BD4FF480630020B6
:1049C0002B6010B070BD00BF8A8992070B4606D5D8
:1049D00001F1470201211A601A6159617047F0B56F
:1049E00083B001AB6A460C460546FFF7BFFF00994E
:1049F00006462846FFF7B4F8B4F90C30D0B1019A56
:104A0000124F0099AF6243F08003A38120602061C0
:104A100061611AB93343A38103B0F0BD2846B4F9EC
:104A20000E10FBF7FFFCB4F90C300028F2D043F075
:104A30000103EFE79A05EFD404F1470243F00203C4
:104A40000121A381226022616161E5E7E535001A59
:104A500001F0FF01102A2BDB10F0070F08D010F82F
:104A6000013B013A8B422DD010F0070F42B3F6D133
:104A7000F0B441EA012141EA014122F007047FF04C
:104A800000070023F0E80256083C85EA010586EAA3
:104A9000010685FA47F5A3FA87F586FA47F6A5FADF
:104AA00087F68EB9EED1F0BC01F0FF0102F00702EB
:104AB00032B110F8013B013A83EA010313B1F8D196
:104AC0000020704701387047002D06BF3546033877
:104AD000073815F0010F07D1013015F4807F02BFB0
:104AE000013015F4C03F0130F0BC0138704700BF01
:104AF0008842F0B50DD98B1898420AD28418002A42
:104B000051D0224613F8014D02F8014D9942F9D1D6
:104B1000F0BD0F2A48D941EA00039B0746D100F1B6
:104B2000100401F11003154653F8106C44F8106C92
:104B300053F80C6C44F80C6C53F8086C44F8086C8F
:104B4000103D53F8046C44F8046C0F2D03F110036E
:104B500004F11004E8D8A2F1100323F00F0302F0CF
:104B60000F0E1033BEF1030F1944034421D91E1F49
:104B70000D467446043C55F8047B46F8047F032C2C
:104B8000F8D8AEF1040424F003040434214423448F
:104B900002F0030262B1013B0A4411F8014B03F831
:104BA000014F8A42F9D1F0BD0346F3E70346F2E72D
:104BB000F0BD7246EEE700BFF8B51446F9B1C2B1D8
:104BC00006460D4600F020F8844201D82846F8BD7C
:104BD00021463046FEF7C4FF074670B122462946FB
:104BE000FEF78EFE294630463D46FEF771FF284609
:104BF000F8BDFEF76DFF2546E8E70546E6E71146F6
:104C0000BDE8F840FEF7ACBF51F8040C0028A0F155
:104C10000400BCBF0B58C018704700BF5461736BD1
:104C2000203100FF4372656174696E6720765461BC
:104C3000736B322066726F6D20765461736B310D29
:104C40000A0000005461736B203200FF76546173D8
:104C50006B322069732072756E6E696E6720616EAB
:104C6000642061626F757420746F2064656C657474
:104C70006520697473656C660D0A00FF4170706C85
:104C800069636174696F6E204D616C6C6F6320465F
:104C900061696C656420486F6F6B210D0000000036
:104CA0006C6962732F6672656572746F732F736FB0
:104CB000757263652F686F6F6B732E6300FFFFFF64
:104CC0000D0A4170706C69636174696F6E20537472
:104CD00061636B204F766572666C6F772121206F60
:104CE0006E205461736B3A2025730D0A00FFFFFF9D
:104CF0000D0A7641737365727443616C6C65642848
:104D0000290D0A2020204C4C696E65204E756D627D
:104D10006572203D2025640D0A20202046696C65BF
:104D2000204E616D65203D2025730D0A0D0A00FFA0
:104D300049444C4500FFFFFF546D725100FFFFFFD7
:104D4000546D72205376630024252627257300FFB7
:104D50000000000000040008000901090500050129
:104D60000502000E010B010C030003030304050FF1
:104D700005100305030603070208FFFF001BB70029
:104D8000010F01010200440002014400020244003C
:104D9000020A4000020B4000020C400001005000DB
:104DA00001015000010250000106500006015000B0
:104DB000060450000605500006075400060854007B
:104DC00006095000060A5000060B5000060C500061
:104DD0000F04F0000103D5000104D50007011600FF
:104DE0000702560002035200020452000905520055
:104DF0000906570006025700C201A20182016201A2
:104E000081008200A100A20001020408030F0F0F1D
:104E1000FF00FFFF000005000A0020002400090039
:104E20004000400005006000A6000400C000C30070
:104E30000200E000E0000100000100010300200189
:104E400020010600400140010C004201420119000E
:104E5000620162011300820182011200A201A2011B
:104E60001100C201C2011000E201E2010F000202C2
:104E700002020E00220222020D00230223021C0065
:104E800000010100090901000A09010001070101EF
:104E900002090100060901000C0901010D090100C8
:104EA0000E0901000F09010010090100110901009C
:104EB0001209010013090100141101001911010068
:104EC0001A1101001B110100040100020107050075
:104ED000030D0105000108040200020204030002A0
:104EE000030400000200070400030C030204050988
:104EF0000301040508020304050302040405040673
:104F00000C000208060B000307060900030506074C
:104F100004050F0604000303040400020404050052
:104F200002050406000206040804050C040A040530
:104F30000E010300000A011400000F011200000D11
:104F4000011100000C0110000003070700030F000F
:104F5000010000010000000000060A000306060828
:104F600004051006050003040601000300040904FB
:104F7000050D010400000B010F00000201000000FC
:104F800004010100000801020000090106000109F6
:104F900002000405000201040501020204050202E8
:104FA0000A00000E020B00010B020C00010CFFFFB7
:104FB00000000000000000000000000000000000F1
:104FC00000000000000000000000000000000000E1
:104FD00000000000000000000000000000000000D1
:104FE00000000000000000000000000000000000C1
:104FF00000000000000000000000000000000000B1
:1050000000000000000000000000000000000000A0
:10501000440000104300FFFF232D302B2000000030
:10502000686C4C0065666745464700FF3031323397
:105030003435363738394142434445460000000094
:1050400030313233343536373839616263646566FE
:04505000000000005C
:045054001725001A02
:08505800F8E0FF7F01000000F9
:10506000AAAAAAAA0100000000100A40220000001B
:10507000F92E001A000000000000000000000000EF
:105080000000000000000E4001000000F92E001A90
:105090000000000000000000000000000000000010
:1050A0004400001000000000F04F001AD04F001A1A
:1050B000B04F001A000000000000000000000000D7
:1050C000000000001450001A000000000000000062
:1050D00000000000000000000000000000000000D0
:1050E00000000000000000000000000000000000C0
:1050F00000000000000000000000000000000000B0
:0451000000000000AB
:040000051A00038555
:00000001FF
